:020000040800F2
:10000000207200205D020008BF8500083D7D0008C9
:10001000BD8500083D650008A38E000800000000B3
:100020000000000000000000000000009D0100082A
:100030003F65000800000000F9010008BD8A0008C3
:1000400077020008770200087702000877020008AC
:10005000770200087702000877020008770200089C
:100060009D65000877020008770200087702000803
:10007000770200087702000877020008770200087C
:10008000770200087702000877020008770200086C
:10009000770200087702000877020008770200085C
:1000A000770200087702000877020008770200084C
:1000B0007D8B0008770200087702000877020008AD
:1000C000770200087702000877020008770200082C
:1000D000770200087702000877020008770200081C
:1000E000770200087702000877020008770200080C
:1000F00077020008770200087702000877020008FC
:1001000077020008770200087702000877020008EB
:100110007702000877020008898B00087702000840
:1001200077020008770200087702000877020008CB
:1001300077020008770200087702000877020008BB
:1001400077020008770200087702000877020008AB
:10015000770200087702000877020008770200089B
:10016000770200087702000877020008770200088B
:1001700077020008770200087702000800000000FC
:100180007702000877020008DFF80CD005F0C0FF06
:1001900000480047B1080108207200202C4B196864
:1001A0000868B0E8F04F80F30988BFF36F8F4FF015
:1001B000000080F3118870470000000008480068C4
:1001C000006880F308884FF0000080F3148862B65E
:1001D00061B6BFF34F8FBFF36F8F00DF00BF00BF6B
:1001E00008ED00E0DFF80C00016841F470010160E7
:1001F000704700BF88ED00E0EFF30980BFF36F8F19
:10020000134B1A681EF0100F08BF20ED108A20E96A
:10021000F04F106009B44FF0500080F31188BFF325
:100220004F8FBFF36F8F12F023FF4FF0000080F36A
:10023000118809BC19680868B0E8F04F1EF0100F6B
:1002400008BFB0EC108A80F30988BFF36F8F704746
:1002500054000020EFF305807047000006488047F7
:1002600006480047FEE7FEE7FEE7FEE7FEE7FEE79B
:10027000FEE7FEE7FEE7FEE76D8B00088901000858
:10028000FE4880ED3A0A70472DE9F047DFF8EC931D
:1002900000262DED0A8B0446B0EE408AF0EE608A0F
:1002A000884635463746D9F8AC0005F05CFD53EC7E
:1002B000182B05F0BDFD6FD3D9F8B00005F053FD44
:1002C00053EC182B05F0CCFDF5D3B4F90000B4F9CC
:1002D0000610401A05F047FD53EC182B05F0A8FD59
:1002E00000D20126B4F90E00B4F91410401A05F03A
:1002F0003AFD53EC182B05F09BFD00D2761CB4F9A7
:100300001C00B4F92210401A05F02DFD53EC182BF7
:1003100005F08EFD00D2761C9FEDD90B012E3BDC43
:1003200053EC102B51EC180B05F026FC89460646C1
:1003300049EC180BB4F90000B4F90610401A05F0A6
:1003400012FD53EC182B05F08BFD00D20125B4F9FA
:100350000E00B4F9141049EC186B401A05F003FDB7
:1003600053EC182B05F07CFD00D26D1CB4F91C0079
:10037000B4F9221049EC186B401A05F0F4FC53EC68
:10038000182B05F06DFD00D26D1C002D05DD02203F
:10039000BDEC0A8BBDE8F08765E000269FEDBACB87
:1003A00006EB460904EB8905B5F90A0005F0DBFC0C
:1003B00098ED048B53EC182B05F0D8FB41EC190B8E
:1003C000B5F9040005F0CFFC53EC182B05F0CEFB7B
:1003D00053EC192B05F0D0FB41EC190BB5F90800D3
:1003E00005F0C1FC98ED028B53EC182B05F0BEFB19
:1003F00041EC1A0BB5F9020005F0B5FC53EC182BD3
:1004000005F0B4FB53EC1A2B05F0B6FB41EC1A0BCC
:10041000B5F9060005F0A7FC98ED008B53EC182BFE
:1004200005F0A4FB41EC1B0B34F9290005F09BFC03
:1004300053EC182B05F09AFB53EC1B2B05F09CFB9F
:1004400053EC1A2B05F0F1FA53EC192B05F0EDFAE9
:1004500053EC1C2B05F0ECFC00D27F1C761C032E09
:100460009EDB022F01DA012092E7002090E7884905
:100470000A684B68D00180EAD20080EA0310486025
:100480008B68520380EAC30382EA5312520282EA63
:10049000D0208B600860704710B52DED048BF0EE16
:1004A000408AFFF7E4FF00EE100AB8EE400ADFEDE5
:1004B000790A20EE200A9FED789A20EE090A0BF0C7
:1004C000ABFEB0EE408AFFF7D2FF00EE100AB8EEA6
:1004D000400A20EE090AB5EEC00AF1EE10FA01D189
:1004E000B7EE000A10EE100A05F08EFC41EC100B7E
:1004F0000BF046FF9FED691B51EC100B53EC112BD9
:1005000005F03AFB05F0C4FC00EE100A0CF01FFAEF
:1005100020EE280A20EE080ABDEC048B10BD2DE960
:10052000F04105462DED048BB0EE608AF0EE408A76
:100530000F4618EE100A05F067FC97ED301B53ECE0
:10054000112B05F019FB41EC190B18EE900A05F080
:100550005BFC95ED301B53EC112B05F00DFB53ECC0
:10056000192B05F062FA0024C5E9300118EE100AD3
:1005700005F04AFC07EBC40898ED001B53EC112B67
:1005800005F0FAFA41EC190B18EE900A05F03CFC64
:1005900005EBC40696ED001B53EC112B05F0ECFAAD
:1005A00053EC192B05F041FAC6E9000118EE100AC8
:1005B00005F02AFC98ED241B53EC112B05F0DCFA16
:1005C00041EC190B18EE900A05F01EFC96ED241B69
:1005D00053EC112B05F0D0FA53EC192B05F025FA4A
:1005E000641CC6E92401062CC0DB002418EE100AA6
:1005F00005F00AFC41EC100B07EBC40090ED121B58
:1006000051EC100B53EC112B05F0B6FA41EC190B21
:1006100018EE900A05F0F8FB05EBC40696ED121BE8
:1006200053EC112B05F0A8FA53EC192B05F0FDF94A
:10063000641CC6E91201092CD8DB002418EE100A4C
:1006400005F0E2FB41EC100B07EBC40090ED0C1B36
:1006500051EC100B53EC112B05F08EFA41EC190BF9
:1006600018EE900A05F0D0FB05EBC40696ED0C1BC6
:1006700053EC112B05F080FA14E00000005F00201D
:100680000000000000000440000000000000000026
:10069000BC040020DB0FC9400000802F00000000D8
:1006A000000000C053EC192B05F0BFF9641CC6E92B
:1006B0000C01032CC2DBBDEC048BBDE8F0812DE9FD
:1006C000F04F04462DED068B83B00D46086805F00B
:1006D0004AFB41EC1A0B686805F045FB41EC190B2D
:1006E000A86805F040FB41EC180B94ED300B9FED32
:1006F000FE1B51EC100B53EC112B05F096F9C4E9DD
:10070000300194ED0C0B53EC1A2B51EC100B05F04F
:100710008CF9C4E90C0194ED0E0B53EC192B51EC40
:10072000100B05F082F9C4E90E0194ED100B53ECA7
:10073000182B51EC100B05F078F9C4E9100153ECBB
:100740001A2B51EC1A0B05F017FA029194ED001BCD
:10075000064653EC112B05F068F9C4E9000153EC8F
:10076000192B51EC1A0B05F007FA894649EC100BCE
:1007700094ED021B054653EC112B51EC100B05F0C8
:1007800054F9C4E9020153EC182B51EC1A0B05F093
:10079000F3F98B464BEC100B94ED041B804653ECA5
:1007A000112B51EC100B05F040F9C4E9040153EC96
:1007B000192B51EC190B05F0DFF9019194ED061B93
:1007C000074653EC112B05F030F9C4E9060153EC50
:1007D000182B51EC190B05F0CFF9009194ED081B83
:1007E000824653EC112B05F020F9C4E9080153ECC3
:1007F000182B51EC180B05F0BFF994ED0A1B53ECC4
:10080000112B05F012F9C4E90A01029953EC1A2BD5
:1008100041EC106B51EC100B05F0AEF994ED121B8E
:1008200053EC112B05F001F949EC105BC4E91201FE
:1008300053EC192B51EC100B05F09EF994ED141BA1
:1008400053EC112B05F0F1F84BEC108BC4E91401BB
:1008500053EC182B51EC100B05F08EF994ED161B90
:1008600053EC112B05F0E1F849EC105BC4E91601DB
:1008700053EC1A2B51EC100B05F07EF994ED181B7C
:1008800053EC112B05F0D1F8C4E91801019953EC90
:10089000192B41EC107B51EC100B05F06DF994ED28
:1008A0001A1B53EC112B05F0C0F8C4E91A0100998A
:1008B000554641EC10AB0E4653EC182B51EC100B87
:1008C00005F05AF994ED1C1B53EC112B05F0ADF813
:1008D000C4E91C0153EC1A2B51EC180B05F04CF930
:1008E00053EC1A2B05F048F994ED1E1B53EC112B19
:1008F00005F09BF846EC105BC4E91E0153EC192B84
:1009000051EC100B05F038F994ED201B53EC112B32
:1009100005F08BF8C4E9200153EC182B51EC180BAF
:1009200005F02AF9894649EC100B074653EC182BC1
:1009300051EC100B05F020F994ED221B53EC112B18
:1009400005F073F8C4E9220153EC1A2B51EC1A0B91
:1009500005F012F9884648EC100B054653EC1A2BAB
:1009600051EC100B05F008F953EC1A2B05F004F9C3
:1009700094ED241B53EC112B05F057F8C4E9240126
:1009800053EC192B51EC190B05F0F6F88A464AEC9A
:10099000100B064653EC192B51EC100B05F0ECF83C
:1009A00053EC192B05F0E8F894ED261B53EC112BB2
:1009B00005F03BF849EC107BC4E9260153EC182BF9
:1009C00051EC100B05F0D8F853EC182B05F0D4F8C7
:1009D00094ED281B53EC112B05F027F848EC105B25
:1009E000C4E9280153EC192B51EC100B05F0C4F8A5
:1009F00053EC192B05F0C0F894ED2A1B53EC112B86
:100A000005F013F848EC105BC4E92A0153EC182BED
:100A100051EC100B05F0B0F853EC182B05F0ACF8C6
:100A200094ED2C1B53EC112B04F0FFFF4AEC106BE0
:100A3000C4E92C0153EC182B51EC100B05F09CF879
:100A400053EC182B05F098F894ED2E1B53EC112B5A
:100A500004F0EBFFC4E92E0103B0BDEC068BBDE84A
:100A6000F08F2DE9F04F93462DED108B0D46044687
:100A700093B090ED0CEB53EC1E2B51EC1E0B05F0DC
:100A80007BF894ED000B41EC190B8DED080B94ED08
:100A9000308B53EC102B51EC180B05F06DF853EC28
:100AA000192B05F063F894ED0EDB41EC1F0B53ECB2
:100AB0001D2B51EC1D0B05F05FF894ED060B41EC7E
:100AC000190B8DED060B53EC102B51EC180B05F0A8
:100AD00053F853EC192B05F049F841EC100B8DED50
:100AE000040B94ED10CB03E0000000000000F03F89
:100AF00053EC1C2B51EC1C0B05F03EF894ED0A0B4B
:100B000041EC190B8DED020B53EC102B51EC180B33
:100B100005F032F853EC192B05F028F841EC110BD5
:100B200053EC1D2B8DED001B51EC1E0B05F024F832
:100B300094ED020B41EC190B53EC102B51EC180BFC
:100B400005F01AF853EC192B05F010F841EC1B0BCB
:100B500053EC1C2B51EC1E0B05F00EF894ED040B1E
:100B600041EC190B53EC102B51EC180B05F004F869
:100B700053EC192B04F0FAFF41EC1A0B53EC1C2B2D
:100B800051EC1D0B04F0F8FF94ED080B41EC190B30
:100B900053EC102B51EC180B04F0EEFF53EC192B17
:100BA00004F0E4FF9DED020B41EC190B53EC102B0C
:100BB00051EC1E0B04F0E0FF41EC110B51EC180B53
:100BC0008DED101B94ED160B53EC102B04F0D4FF9D
:100BD00041EC110B51EC1E0B8DED0E1B9DED060B28
:100BE00053EC102B04F0C8FF41EC110B51EC180B27
:100BF0008DED0C1B94ED140B53EC102B04F0BCFF8B
:100C000041EC110B51EC1E0B8DED0A1B9DED080BF9
:100C100053EC102B04F0B0FF94ED120B41EC1E0BC3
:100C200053EC102B51EC180B04F0A6FF53EC1E2BC9
:100C300004F09CFF9DED0A1B53EC112B04F0F5FE14
:100C40009DED0C1B53EC112B04F090FF9DED0E1B42
:100C500053EC112B04F0E9FE9DED101B53EC112B0E
:100C600004F084FF9FEDFE1B53EC112B04F084FF76
:100C70009DED020B41EC1E0B53EC102B51EC1D0BA8
:100C800004F07AFF41EC110B51EC180B8DED101BA9
:100C900094ED1C0B53EC102B04F06EFF41EC110B88
:100CA00051EC1D0B8DED0E1B9DED060B53EC102B27
:100CB00004F062FF41EC110B51EC180B8DED0C1B95
:100CC00094ED1A0B53EC102B04F056FF41EC110B72
:100CD00051EC1D0B8DED0A1B9DED080B53EC102BF9
:100CE00004F04AFF94ED180B41EC1D0B53EC102B54
:100CF00051EC180B04F040FF53EC1D2B04F036FFB1
:100D00009DED0A1B53EC112B04F08FFE9DED0C1B87
:100D100053EC112B04F02AFF9DED0E1B53EC112B0D
:100D200004F083FE9DED101B53EC112B04F01EFF0D
:100D30009FEDCB1B53EC112B04F01EFF9DED020B1E
:100D400041EC1D0B53EC102B51EC1C0B04F014FF69
:100D500041EC110B51EC180B8DED021B94ED220BA5
:100D600053EC102B04F008FF41EC110B51EC1C0B61
:100D70008DED0A1B9DED060B53EC102B04F0FCFED1
:100D800041EC110B51EC180B8DED0C1B94ED200B6D
:100D900053EC102B04F0F0FE41EC110B51EC1C0B4A
:100DA0008DED061B9DED080B53EC102B04F0E4FEBB
:100DB00094ED1E0B41EC1C0B53EC102B51EC180B5B
:100DC00004F0DAFE53EC1C2B04F0D0FE9DED061B64
:100DD00053EC112B04F029FE9DED0C1B53EC112B51
:100DE00004F0C4FE9DED0A1B53EC112B04F01DFE14
:100DF0009DED021B53EC112B04F0B8FE9FED981BE8
:100E000053EC112B04F0B8FE9DED040B41EC180BD4
:100E100053EC102B51EC1F0B04F0AEFE10919DED26
:100E2000001B824653EC112B04F0A6FE41EC110B83
:100E300053EC192B8DED0A1B51EC1F0B04F09CFE9B
:100E400053EC192B04F098FE41EC110B53EC1A2BC8
:100E50008DED081B9DED040B51EC100B04F08CFE86
:100E6000814653EC1A2B119104F086FE41EC110BD4
:100E70008DED061B9FED7C0B51EC1B0B53EC102BE7
:100E800004F07AFE53EC1A2B04F076FE53EC192B87
:100E900004F072FE9DED001B41EC1C0B53EC1B2B70
:100EA00051EC110B04F068FE074653EC1B2B02912A
:100EB00004F062FE53EC1C2B04F058FE9DED061B63
:100EC00053EC112B04F0B1FD9DED081B53EC112BDD
:100ED00004F0ABFD9DED0A1B53EC112B04F046FE14
:100EE00041EC1C0B9FED620B53EC102B04F0A0FFA8
:100EF0007DD053EC192B51EC1B0B04F03DFE53EC51
:100F0000182B04F039FE41EC110B53EC1D2B8DED29
:100F10000E1B029941EC107B51EC100B04F02CFEDF
:100F200041EC110B8DED0C1B9DED000B53EC102BC8
:100F30009DED040B51EC100B04F01EFE53EC1E2B28
:100F400004F01AFE41EC110B53EC192B8DED081B2C
:100F500051EC190B04F010FE53EC1E2B04F00CFEA8
:100F600041EC110B53EC1D2B8DED0A1B51EC190BB1
:100F700004F002FE41EC110B53EC182B8DED061B17
:100F80009DED040B51EC100B04F0F6FD9DED061BDE
:100F900053EC112B04F0EAFD53EC1A2B04F0ECFD9A
:100FA0009DED0A1B53EC112B04F03FFD9DED081B3A
:100FB00053EC112B04F0DAFD9DED0C1B53EC112BBF
:100FC00004F033FD9DED0E1B53EC112B04F0CEFD10
:100FD00041EC100B53EC1A2B8DED060B51EC1B0B57
:100FE00004F0CAFD8846064648EC100B00E065E1B7
:100FF00053EC182B51EC100B04F0BEFD41EC110B1F
:1010000053EC1E2B8DED041B029941EC107B51EC2F
:10101000100B04F0B1FD41EC110B51EC1F0B8DEDE9
:10102000021B9DED000B53EC102B04F0A5FD53ECBF
:101030001D2B04F0A1FD41EC110B53EC1A2B8DED8F
:10104000081B51EC1A0B04F097FD53EC1D2B04F018
:1010500093FD41EC110B53EC1E2B8DED001B0BE0AF
:10106000000000000000E03F000000000000004021
:10107000000000000000000051EC1A0B04F07CFDA1
:1010800041EC1A0B53EC182B51EC1F0B04F074FDC0
:1010900053EC1A2B04F06AFD53EC192B04F06CFD91
:1010A0009DED001B53EC112B04F0BFFC9DED081BC4
:1010B00053EC112B04F05AFD9DED021B53EC112B48
:1010C00004F0B3FC9DED041B53EC112B04F04EFD1A
:1010D00041EC100B53EC1D2B8DED040B48EC106B09
:1010E00051EC100B04F048FD41EC110B53EC1E2B9E
:1010F0008DED001B119941EC109B51EC100B04F08D
:101100003BFD41EC110B53EC182B8DED021B10999C
:1011100041EC10AB51EC100B04F02EFD41EC1A0B1E
:1011200053EC1B2B51EC1B0B04F026FD53EC182B3E
:1011300004F022FD41EC180B53EC1E2B51EC1B0B61
:1011400004F01AFD41EC1B0B53EC1D2B51EC1F0B53
:1011500004F012FD53EC1B2B04F008FD53EC192B8B
:1011600004F00AFD53EC182B04F05FFC53EC1A2B2F
:1011700004F0FCFC9DED021B53EC112B04F055FC1C
:101180009DED001B53EC112B04F0F0FC9DED060BC4
:1011900041EC190B53EC1C2B51EC100B04F05EFDD1
:1011A00041EC180B53EC1C2B85ED008B9DED040BD3
:1011B00051EC100B04F052FD41EC1A0B53EC1C2BBC
:1011C00085ED02AB51EC190B04F048FD41EC190B15
:1011D00085ED049B94ED100B53EC102B04F0CCFC2C
:1011E00094ED0E0B41EC1B0B53EC102B51EC1A0B36
:1011F00004F0C2FC94ED0C0B41EC1C0B53EC102BD7
:1012000051EC180B04F0B8FC53EC1C2B04F00DFC53
:1012100053EC1B2B04F009FC1FED6D1B53EC112B41
:1012200004F0AAFC94ED061B94ED000B41EC1B0BA3
:1012300053EC112B51EC100B04F0F7FB94ED0A1B4F
:1012400053EC112B04F0F1FB53EC1B2B04F08EFC40
:1012500094ED301B53EC112B04F000FD41EC1B0B03
:1012600053EC192B51EC190B04F086FC41EC190BD3
:1012700053EC1A2B51EC1A0B04F07EFC41EC1A0BC8
:1012800053EC182B51EC180B04F076FC53EC1A2B92
:1012900004F0CBFB53EC192B04F0C7FB53EC1B2BD6
:1012A00004F0C3FB41EC100B0BF014FB8BED000BB7
:1012B000012013B0BDEC108BBDE8F08F0020F8E7E3
:1012C0002DE9F04F0D462DED108B04468BB091EDBE
:1012D00000AB53EC1A2B51EC1A0B04F04DFC94EDBF
:1012E0000CCB53EC1C2B04F047FC53EC1C2B04F0F0
:1012F00043FC94ED30FB41EC180B53EC1A2B51ECF2
:101300001F0B04F039FC8B464BEC100B074653ECDB
:101310001A2B51EC100B04F02FFC94ED00EB53EC66
:101320001E2B04F029FC53EC182B04F01FFC41EC9D
:10133000190B53EC1E2B51EC1A0B04F01DFC53EC53
:101340001C2B04F019FC4BEC107B94ED121B41ECB0
:10135000180B53EC112B51EC100B04F00DFC53EC5B
:10136000192B04F006FC53EC182B04F05EFB41EC47
:101370001B0B1FEDC30B51EC1A0B53EC102B04F09D
:10138000FBFB894649EC100B95ED029B064653EC9E
:10139000192B51EC100B04F0EFFB53EC1C2B04F059
:1013A000EBFB94ED0EDB53EC1D2B04F0E5FB41EC65
:1013B000180B1FEDD30B51EC1F0B53EC102B04F04B
:1013C000DBFB824653EC1A2B069104F0D5FB53EC61
:1013D000192B04F0D1FB94ED021B53EC112B04F0FC
:1013E000CBFB53EC1B2B04F020FB53EC182B04F02D
:1013F000BDFB41EC180B53EC1C2B51EC1A0B04F009
:10140000BBFB049194ED06BB804653EC1B2B04F010
:10141000B3FB41EC110B4BEC107B8DED001B94EDFD
:10142000141B51EC100B53EC112B04F0A5FB53ECE7
:10143000182B04F09EFB9DED001B53EC112B04F0C8
:10144000F4FA41EC110B49EC106B8DED001B95ED9E
:10145000048B51EC100B53EC182B04F08DFB53EC68
:101460001C2B04F089FB94ED10CB53EC1C2B04F0E7
:1014700083FB41EC110B53EC1A2B8DED021B0699EB
:1014800041EC10AB51EC100B04F076FB53EC182B35
:1014900004F072FB94ED041B53EC112B04F06CFB75
:1014A0009DED001B53EC112B04F0BFFA9DED021BC8
:1014B00053EC112B04F05AFB41EC100B8DED000B9B
:1014C000049994ED0AAB41EC108B53EC1A2B51ECC0
:1014D000100B04F051FB41EC110B4BEC107B8DED2C
:1014E000021B94ED161B51EC100B53EC112B04F066
:1014F00043FB9DED001B53EC112B04F03AFB9DEDDB
:10150000021B53EC112B04F090FA41EC110B8DED02
:10151000001B9FEDFE0B51EC1E0B53EC102B04F047
:101520002BFB53EC1E2B04F027FB41EC110B8DED34
:10153000021B9FEDF60B51EC1F0B53EC102B04F02C
:101540001BFB059194ED241B814653EC112B04F0F9
:1015500013FB9DED001B53EC112B04F066FA9DED7F
:10156000021B53EC112B04F001FB41EC110B53EC6B
:101570001E2B8DED001B51EC190B04F0FDFA53EC02
:101580001D2B04F0F9FA41EC110B53EC192B8DEDE6
:10159000081B51EC1F0B04F0EFFA039194ED181B9C
:1015A000064653EC112B04F0E7FA9DED001B53ECBB
:1015B000112B04F0DEFA9DED081B53EC112B04F007
:1015C00034FA41EC110B8DED001B9FEDD20B51EC69
:1015D0001E0B53EC102B04F0CFFA8B464BEC100B88
:1015E000054653EC1B2B51EC100B04F0C5FA41ECF3
:1015F000110B8DED081B9FEDC70B51EC1F0B53EC2E
:10160000102B04F0B9FA049194ED2A1B804653EC98
:10161000112B04F0B1FA9DED001B53EC112B04F0DB
:1016200004FA9DED081B53EC112B04F09FFA41ECDA
:10163000110B53EC1E2B8DED001B51EC180B04F01D
:101640009BFA53EC1C2B04F097FA41EC1E0B53EC65
:10165000182B51EC1F0B04F08FFA029194ED1E1B16
:10166000074653EC112B04F087FA9DED001B53EC59
:10167000112B04F07EFA53EC1E2B04F0D6F94BEC40
:10168000105B41EC1F0B53EC1A2B51EC100B04F0C8
:1016900073FA41EC1E0B049994ED2C1B41EC108B5A
:1016A00053EC112B51EC100B04F066FA53EC1F2B8A
:1016B00004F0BBF953EC1E2B04F058FA41EC1F0B5D
:1016C00053EC192B51EC190B04F056FA53EC1D2B6B
:1016D00004F052FA53EC1D2B04F04EFA41EC1E0BB1
:1016E000039953EC192B41EC106B51EC100B04F0E7
:1016F00043FA53EC1B2B04F03FFA53EC1F2B04F07E
:1017000094F953EC1E2B04F031FA41EC1F0B53EC0F
:101710001B2B51EC190B04F02FFA53EC1D2B04F08A
:101720002BFA41EC1E0B039994ED1A1B41EC106B44
:1017300053EC112B51EC100B04F01EFA53EC1F2B41
:1017400004F017FA53EC1E2B04F06FF941EC1F0B59
:101750009FED720B51EC190B53EC102B04F00CFAAB
:1017600053EC182B04F008FA53EC1D2B04F004FA88
:1017700053EC1C2B04F000FA41EC1E0B069953ECC1
:10178000192B41EC10AB51EC100B04F0F5F953ECB4
:10179000182B04F0F1F994ED081B53EC112B04F015
:1017A000EBF953EC1F2B04F040F953EC1E2B04F023
:1017B000DDF941EC1E0B53EC1D2B51EC190B04F021
:1017C000DBF953EC1A2B04F0D7F941EC190B039910
:1017D00094ED1C1B41EC106B53EC112B51EC100BD6
:1017E00004F0CAF953EC1E2B04F0C3F953EC192B87
:1017F00004F01BF941EC1D0B9FED44EB51EC1B0B6E
:1018000053EC1E2B04F0B8F953EC1B2B04F0B4F985
:1018100041EC190B059994ED261B41EC109B53EC00
:10182000112B51EC100B04F0A7F953EC1D2B04F015
:10183000FCF853EC192B04F099F941EC1D0B53EC17
:101840001B2B51EC180B04F097F953EC1C2B04F0F4
:1018500093F941EC190B029994ED201B41EC107B9C
:1018600053EC112B51EC100B04F086F953EC1D2BAB
:1018700004F07FF953EC192B04F0D7F89FED250BFA
:1018800041EC190B53EC102B51EC1B0B04F074F9C9
:1018900053EC1A2B04F070F941EC1B0B049994EDF6
:1018A0002E1B41EC108B53EC112B51EC100B04F060
:1018B00063F953EC192B04F0B8F853EC1B2B04F02C
:1018C00055F941EC1B0B53EC182B51EC180B04F0A1
:1018D00053F953EC1C2B04F04FF953EC1C2B04F080
:1018E0004BF941EC190B029953EC182B41EC107B8E
:1018F00051EC100B04F040F953EC1A2B04F03CF9B6
:1019000053EC1B2B04F091F80CE0000000000000E9
:101910000000D03F000000000000E03F0000000099
:101920000000004053EC192B04F020F941EC190B96
:1019300053EC1A2B51EC180B04F01EF953EC1C2B32
:1019400004F01AF941EC180B029994ED221B41ECBA
:10195000107B53EC112B51EC100B04F00DF953ECF0
:10196000192B04F006F953EC182B04F05EF841EC47
:10197000180B53EC1E2B51EC1A0B04F0FDF853EC32
:101980001A2B04F0F9F841EC190B059994ED281B7A
:1019900041EC109B53EC112B51EC100B04F0ECF8C4
:1019A00053EC182B04F041F853EC192B04F0DEF83B
:1019B00041EC100B0BB07DE430B50446B0F88C0060
:1019C00089B000040690B4F88E000D46000407901C
:1019D000B4F8900088340004089002A80DF000FFCD
:1019E000029906982B46401A06900399079806AA72
:1019F000401A079004990898401A08902088616A54
:101A000080B20DF099FD09B030BDF0B50D462DED59
:101A1000048B87B06946FFF7CFFF9FEDFE8B002454
:101A20006F469FEDFE9A03AE57F8240000EE100AB1
:101A300006EB8400B8EEC00A20EE090A80ED000A29
:101A400020EE000A10EE100A04F0DEF953EC182B19
:101A500003F0EBFF41EC180B641C032CE4DBB0EE4D
:101A6000480AF0EE680A0AF035FFB0EE408AF0EE60
:101A7000608A002456F8240004F0C6F953EC182BB1
:101A800004F0ECF804F004FA00EE100A05EB840010
:101A9000641CD0ED000A032C30EE200A80ED000A11
:101AA000E8DB686D401C68650EF004F9E86707B074
:101AB000BDEC048BF0BD2DE9F04104460DF02EFF86
:101AC00040BB0DF0B9FE042824D0D54920460E466F
:101AD000FFF79BFFD34DD5E95C01814205DB304622
:101AE00003F0E5FB0020C5F87401208E4FF00406DA
:101AF000C00515D504F118000DF002FF8009B0F5FE
:101B0000C87F0AD2D5F8B800002850DD401EC5F8BD
:101B1000B8004AE00120BDE8F081C5F8B86044E0B3
:101B2000D4F8A010D5F81401081A01D4034600E037
:101B30004342BB4A4FF4A02C583A634505DDD4E933
:101B400029035365C2E913102FE00312D4F8A470DF
:101B5000D5F818015B43381A01D4864601E0C0F17C
:101B6000000EE64505DDD4F8A800D164C2E9147082
:101B70001BE0001200FB0033D4F8A800D5F81C11BC
:101B8000401A01D4014600E0414261450DDC0012DB
:101B900000FB0030B0F5403FB4DBA034C5F8B860BE
:101BA00094E80B004C3282E80B000020B3E70220DF
:101BB000B1E72DE9F04F9B4C2DED028B93B0D4F89B
:101BC000A81090ED000B04EBC10181ED000BD4F8DF
:101BD000A810491CC4F8A81090ED020B04EBC10139
:101BE00081ED000BD4F8A810491CC4F8A81090EDA2
:101BF000040B04EBC10080ED000BD4F8A800401CDE
:101C0000C4F8A800152802DB0020C4F8A800182298
:101C100084490CA803F0C1FE1822824904A803F0ED
:101C2000BCFE01260DF1300A0DF1100BA146002477
:101C300006EB460808EB040109EBC1050AEBC407F3
:101C400095ED001B97ED000B53EC112B51EC100B95
:101C500004F006F903D295ED000B87ED000B0BEBBA
:101C6000C40795ED001B97ED000B53EC112B51ECC5
:101C7000100B04F0DDF803D295ED000B87ED000B9F
:101C8000641C032CD6DB761C072ED0DB9DED0C1BD1
:101C90009DED040B53EC112B51EC100B03F066FF80
:101CA0009DED0E1B9DED060B41EC180B53EC112B1B
:101CB00051EC100B03F05AFF53EC182B04F0B8F85A
:101CC0000BD39DED0E1B9DED060B53EC112B51EC30
:101CD000100B03F04BFF41EC180B9DED101B9DED1D
:101CE000080B53EC112B51EC100B03F03FFF53EC9E
:101CF000182B04F09DF80BD39DED101B9DED080BE8
:101D000053EC112B51EC100B03F030FF41EC180B8E
:101D100013B0B0EE480AF0EE680ABDEC028BBDE8E5
:101D2000F08F10B504462DED068B9CB00021552098
:101D30000E91CDE90F1011909FED3B8B0AA80DF08D
:101D40001DFD12A90AA80EF093F816AA0EA912A852
:101D50000EF0B1F86A460AA916A80EF0ACF8019880
:101D6000B2EE059A00F5967001900298B0EE490A1D
:101D700000F596700290039800F596700390FEF7B8
:101D80008BFBBDEEC00A019910EE100AB0EE490AB5
:101D900008440190FEF780FBBDEEC00A029810EEE9
:101DA000101AB0EE490A08440290FEF775FBBDEE2A
:101DB000C00A039910EE100A08440390204601A9B6
:101DC000FEF77DFC94ED300B9FED191B51EC100BD1
:101DD00053EC112B04F044F85DD21AAA04A9204652
:101DE000FEF73FFE60B39DED080B9FED138B51ECAA
:101DF000100B53EC182B03F0B9FE41EC100B53EC15
:101E0000102B03F0B9FE41EC190B9DED060B53ECC2
:101E1000182B16E0000000000000000000008037D2
:101E200020600020005F00200000000000408F4084
:101E300000000000000034400000000000C07240BC
:101E400029E051EC100B03F091FE41EC100B53EC28
:101E5000102B03F091FE9DED040B41EC1A0B53EC9B
:101E6000182B51EC100B03F081FE41EC100B53ECDE
:101E7000102B03F081FE53EC1A2B03F0D6FD53EC2C
:101E8000192B03F0D2FD41EC100B0AF023FDB0EE4C
:101E9000408AF0EE608A9FEDFD0B51EC180B53EC7D
:101EA000102B03F0DBFE1CB041EC100BBDEC068BDD
:101EB00010BD10B5E821F74803F096FDF648F74944
:101EC00020F8BC1F4A0CC280C18182828183428477
:101ED000F048E821E83003F087FDEF490020C1F821
:101EE000B40010BD2DE9F043EB4D04462DED108BF1
:101EF000C3B0006BC5F8A0012046FFF7DCFD002849
:101F00007ED1D5F8941105F1BC08012911D1B4F99D
:101F10008C003D90B4F98E003E90B4F990003F9053
:101F20003DA9DC48FEF7CBFB04F18C01404600F0F4
:101F3000A4FB1FED48DB9FEDDABB9FEDDBCB9FEDF4
:101F4000DCAB9FEDDDEBD34ED5F80801E83E002871
:101F500002DD401EC5F8080196ED300B53EC1D2B39
:101F600051EC100B03F07CFF7DD2CA49E822E8391E
:101F7000684603F012FDC7483DA9E838FEF79FFB0D
:101F8000C44940AA20390F46A1F1C800FEF769FDF7
:101F900000287BD0BF483946E838FFF791F9B0EE0A
:101FA000408AF0EE608A95ED400B51EC180B53EC33
:101FB000102B03F0DBFD96ED300B41EC190B53ECCD
:101FC0001B2B51EC100B03F0D1FD41EC100B51EC2D
:101FD000190B53EC102B03F041FE41EC100B0AF0EF
:101FE00079FC96ED30FBB0EE409AF0EE609A53EC3F
:101FF0001B2B51EC1F0B03F0B9FD53EC1F2B00E022
:10200000E9E003F0B9FD41EC1F0B53EC1C2B51EC44
:10201000180B03F0B1FD53EC1F2B03F01FFE41EC36
:10202000100B0AF057FCD5F8E80003F0EDFE95ED33
:10203000381B53EC112B03F09FFD53EC192B03F0CD
:10204000F7FE03D3D5F80801002826DD9148E822E1
:102050006946E83803F0A1FCD5F8E80003F0D4FEA7
:1020600095ED381B01E010E010E053EC112B03F06C
:1020700083FD53EC192B03F0DBFE5CD24FF4FA70B6
:1020800001F03CFE0A20C5F8080154E08148E8222E
:102090006946E83803F081FC4DE0D5F89801012845
:1020A00049D1D5F8B400401CC5F8B40000200EF0AA
:1020B000B5FA96ED320B53EC1A2B51EC100B03F0E2
:1020C0005BFD03F082FE3A9096ED340B53EC1A2B35
:1020D00051EC100B03F050FD03F077FE3B9096EDB2
:1020E000360B53EC1A2B51EC100B03F045FD03F0AB
:1020F0006CFE3C9003213AA80EF002FA96ED300BEC
:1021000053EC1E2B51EC100B03F0AAFE11D29FEDE5
:102110006C0A6049E839F0EE400A0846FEF7FFF91C
:102120005C483946E838FFF7CBF8B0EE408AF0EE6D
:10213000608A85ED408B208E564FC0050CD5B4F8D3
:102140007400C00508D507F1E800FFF7EAFDB0EE1E
:10215000408AF0EE608A01E09FED4C8B97ED300BEA
:102160001FEDCD1B51EC100B53EC112B03F060FE57
:1021700031D3484940AAC83189464648FEF771FC28
:1021800000287CD0D4F8AC0003F0EDFD41EC100B3E
:1021900053EC102B9FED4B0B51EC100B03F05EFD3D
:1021A00041EC1F0B4846FFF704FDB0EE409AF0EEFD
:1021B000609A53EC1F2B51EC190B03F051FE0BD21C
:1021C0009FED420B51EC180B53EC102B03F030FE3B
:1021D00002D2FFF76EFEDBE153EC1F2B51EC190B23
:1021E00003F026FE51D251EC180B9FED3A9B53ECB5
:1021F000192B03F01DFEF5D297ED300B9FED371B29
:1022000051EC100B53EC112B03F02AFEEAD296EDA1
:10221000300B53EC1D2B51EC100B03F009FE7CD15D
:1022200049461C48FFF74CF8B0EE408AF0EE608A51
:1022300085ED408B97ED309B53EC1B2B51EC190B2C
:1022400003F094FC53EC192B03F096FC41EC190BB2
:1022500053EC1C2B51EC180B03F08EFC53EC192B98
:1022600003F0FCFC41EC100B0AF034FBB0EE408AAA
:10227000F0EE608AD5F8E80003F0C6FD00E088E1E2
:1022800095ED381B53EC112B2CE078E10000000099
:1022900000000840305D0020005F00200080FFFF4C
:1022A000000000000000F03F0000000000000040BF
:1022B000000000000000F0400000000000409F40CF
:1022C0006666E63E9A9999999999A941000000009D
:1022D0000000F83F00000000000010400000000077
:1022E00000003E4003F048FC53EC182B03F0A0FD27
:1022F000FFF46FAF9DED400B49464046FDF7C4FF2C
:1023000002283FF466AF00287ED1D5F89801012855
:10231000FAD100200EF082F900E02FE097ED320BA9
:1023200053EC1A2B51EC100B03F026FC03F04DFD7F
:102330003A9097ED340B53EC1A2B51EC100B03F041
:102340001BFC03F042FD3B9097ED360B53EC1A2B30
:1023500051EC100B03F010FC03F037FD3C9003210F
:102360003AA80EF0CDF801200EF0F6F819200090F2
:102370000190029068460EF0E7F8F6E0D5F8B40058
:1023800003F0F1FC97ED301B53EC112B03F066FCCE
:102390009FEDE71B53EC112B03F062FDA8D34946D8
:1023A000E548FEF78DFF97ED30DBB0EE408AF0EEAA
:1023B000608A53EC1B2B51EC1D0B03F0D7FB53EC45
:1023C0001D2B03F0D9FB41EC1B0B53EC1C2B51ECE8
:1023D000180B03F0D1FB53EC1B2B03F03FFC41EC3B
:1023E000100B0AF077FAB0EE40BAF0EE60BAD5F80A
:1023F000E80003F009FD95ED381B53EC112B03F0B9
:10240000BBFB53EC1B2B00E087E003F011FDC5D3B1
:102410009DED400B49464046FDF736FF00287CD134
:1024200096ED361B97ED360B53EC112B51EC100B40
:1024300003F09CFB41EC100B53EC102B03F09CFBC6
:1024400096ED341B97ED340B41EC1B0B53EC112B29
:1024500051EC100B03F08AFB41EC100B53EC102BEA
:1024600003F08AFB96ED321B97ED320B41EC1C0B0F
:1024700053EC112B51EC100B03F078FB41EC100BDB
:1024800053EC102B03F078FB53EC1C2B03F0CDFA2C
:1024900053EC1B2B03F0C9FA41EC100B0AF01AFAAB
:1024A000B0EE40BAF0EE60BAD4F8AC0003F05BFCDA
:1024B00053EC1B2B03F060FB9FEDA01B53EC112B87
:1024C00003F05AFB41EC1B0B53EC192B03F0C8FC37
:1024D0001AD39FED9C0B51EC1B0B53EC102B03F00C
:1024E000BFFCBFF476AED5F8B40003F03CFC97ED2A
:1024F000301B53EC112B03F0B1FB9FED941B53ECFD
:10250000112B03F095FCECD2D5F8980101287FF44B
:1025100060AE00200EF082F800E039E085ED408BDF
:1025200097ED320B53EC1A2B51EC100B03F024FBFC
:1025300003F04BFC3A9097ED340B53EC1A2B51EC13
:10254000100B03F019FB03F040FC3B9097ED360BAA
:1025500053EC1A2B51EC100B03F00EFB03F035FC7F
:102560003C9003213AA80DF0CBFFF7EE000A9FED57
:10257000790A7149A1F1E800FDF7D1FF29E697ED4D
:10258000300B53EC1E2B51EC100B03F069FCF5D310
:10259000002043B0BDEC108BBDE8F08370B56E4CED
:1025A0000546D4F80C0110B9284600F091F8D5F88A
:1025B000B01044F6206081420ADAD4F810211144A8
:1025C0008142C4F810114FF0000005DBC4F810017F
:1025D0002846BDE8704085E470BD04224FF4C87100
:1025E000AFF247000DF04EBEAFF24F000EF00AB949
:1025F000514810B5E821E83803F0F6F9FFF759FC27
:102600004FF4D471544803F0EFF9534CB7EE000A7D
:1026100004F5907084ED3A0A02F095FD0A20C4F8A2
:102620007001B2EE000A84ED570A1E209FED4B0A9E
:10263000C4F87C0184ED620A9FED490A84ED610AC9
:102640009FED480A002084ED630A10BD10B5FFF726
:10265000CFFF002805D1AFF27D00BDE810400DF09E
:1026600099BE10BD10B5AFF2CB000EF0CBF8AFF2B3
:102670009500BDE810400EF0EBB830B50022C2EB7B
:10268000C20331F9124030F91350AC420ADD02EBBB
:1026900042040D8820F8245000EB84044D886580A6
:1026A0008D88A58000EB430331F91240B3F9063061
:1026B0009C4209DA02EB420300EB83030C88DC80C6
:1026C0004C881C818C885C81521C032AD7DB30BD6E
:1026D00070B5214DD0F8AC200446EAB1D3170020E4
:1026E000192103F008F945F8AC0F54F8AC2F00207D
:1026F000D317052103F0FFF8686022680020D31784
:10270000962103F0F8F803F02EFBC5E90D01AC3D6E
:102710000120C5F80C0170BD6FF00040C5F8AC0099
:102720009FED110BC5F8B00085ED380BF0E7000008
:102730000AD7A3703D0AE73F305D0020000000008B
:102740000000103E0000000000000440333333332B
:102750003333C33F00000000005F0020CDCCCC3EEF
:102760003333333F9A99193F0000C0FFFFFFDF4129
:1027700010B5FF49C4074FF040434FF0804205D0E9
:102780008B66CB66C1E91C328A67CA67840709D5A4
:10279000C1F80031C1F80431C1E94232C1F8102159
:1027A000C1F81421400709D5C1F89831C1F89C310E
:1027B000C1E96832C1F8A821C1F8AC2110BD2DE9EA
:1027C000F14F002082B0824681460298806F002837
:1027D0007ED000220020401C0428FCDB029800EB85
:1027E000C203D3E90010A1FB0167D3E9065400FB43
:1027F000017701FB0077AB46AD1BCDE900670326EF
:10280000A5FB06C8A64664EB070404FB0684002764
:1028100005FB0745DDE900671CEB06047D41A4FBD1
:10282000016705FB017504FB0055D3E90C47341B18
:1028300065EB0705CDE900455D46A5FB056703246B
:10284000A6FB04580EFB0B770BFB0E7707FB0484EB
:102850004FF0000C06FB0C44D3E91263761B63EBCC
:1028600004034C18A4FB017C40EB000505FB01C5EB
:1028700004FB0055A7FB014C05FB01C507FB0055F8
:10288000A4FB017C05FB01C504FB0054F619634160
:10289000DDE90045AD0045EA9475A400A4FB017C88
:1028A00005FB01C104FB0014F01B73EB040103D50D
:1028B0000023404263EB0101BAEB000479EB010312
:1028C00001DA82468946521C032A83DB504600E027
:1028D00016E0494603F031FA00EE900AA54890ED63
:1028E0000E1A80EE810A10EE100A03F04DFAA04A8B
:1028F000D2F80C2203B09200BDE8F04F03F03BB8D1
:10290000002003B00146BDE8F08F2DE9F14F002013
:10291000009A0146926FE2B300240022521C042A5E
:10292000FCDB009A02EBC405AA46D5E90029A2FB0C
:10293000023CD5E906769E46FB1A0325A3FB0578E3
:1029400009FB02CC02FB09CB66EB0B0606FB0585F7
:102950004FF0000C03FB0C5617EB0E03A3FB027C9D
:1029600046EB0B0606FB02C203FB0923DAE90C2542
:10297000BA1AAB4103D50025524265EB0303851A11
:1029800071EB030501DA10461946641C032CC4DB05
:1029900000E015E003F0D1F900EE900A754890EDE3
:1029A0000E1A80EE810A10EE100A03F0EDF9704A5B
:1029B000D2F80C22BDE8F84F02EB420202F0DBBF76
:1029C00000200146BDE8F88F2DE9FE43684D8046A2
:1029D0000024D5F810626F4605EBC4013246D1E9F8
:1029E000020102F0B9FF05EB8401B1F8841009047B
:1029F000401847F8240004F10104032CECDB5C4888
:102A00009821083002F0F0FF0120FFF7B1FE95F8A1
:102A1000E8010199042807D1D5F81802B0F5201F64
:102A200002DD052085F8E801524C0098636AC11A5E
:102A300001D40E4600E01E1A0198A26A801A01D441
:102A4000074601E0019FD71BBE4206DD002901D4E5
:102A5000084606E00098181A03E0002801D50198FE
:102A6000101A029AE16A521A01D4134601E0029B3D
:102A7000CB1A834205DB002A01D4104601E00298FC
:102A8000081AD8F824100DF0BAF9D5F818128142B6
:102A900006DD032168460DF007FE02200DF056FE0C
:102AA000009860620198A0620298E062BDE8FE832F
:102AB000304AC2E9020170472E4AC2E90601704756
:102AC0002C4AC2E904017047294AD2F8E031036078
:102AD000D2E97402C1E900027047254AD2F8E03118
:102AE0000360D2E97602C1E9000270472DE9FE4792
:102AF00081460020EA468A6F22B901EB800339F94A
:102B00001020DA6701EB800239F91030D46F1D1BF9
:102B10004AF82050136E9D4200DD1566D36E9D422B
:102B200000DAD5660123002422464FEAE578A3FBAC
:102B3000056704FB057403FB0844334602EB4206B9
:102B400001EBC60606EBC00CDCE90076FF18664117
:102B5000CCE90076521C042AE9DB401C0328CADBBE
:102B6000886F401C88670120C1F89000BDE8FE878F
:102B7000A86000200863002030B5002302EB830525
:102B800050F823405B1CEC66032BF7DBC2F888107F
:102B9000916F79B1002102EB810450F82130E56F8B
:102BA0005B1B00D55B42256E9D4200DA2366491C03
:102BB0000329F0DB906F401C90670120C2F8900061
:102BC00030BD10B500210B4600EB8102491CD46ECC
:102BD000D46713660329F7DBD0F8881040F8783FF4
:102BE000C0E9051310BDD0E92210081A704701464C
:102BF000D1E91802824200DB1046896E814200DB77
:102C0000084670472DE9F0478046501E0126864051
:102C10008946C2F12007404602F0ADFE04460D464B
:102C2000404649463A4602F097FE3A4602F0A3FE75
:102C3000B04203DD641C45F1000505E071428842A5
:102C400002DA641E45F1FF3520462946BDE8F087CB
:102C5000F7490020086248628862C86208644864D4
:102C60008864C864086348638863C8630865486506
:102C70008865C865704730B5EE4AD2F8483223B14E
:102C8000D2E990542D1A8C4101DAC2E990015B1C03
:102C9000C2F8483230BD30B5E64AD2F8583223B1D6
:102CA000D2E994542D1A8C4101DAC2E994015B1CDB
:102CB000C2F8583230BD30B5DE4AD2F828322BB1D6
:102CC000D2E98845041B71EB050401DAC2E98801E9
:102CD0005B1CC2F8283230BD30B5D64AD2F8383243
:102CE0002BB1D2E98C45041B71EB050401DAC2E972
:102CF0008C015B1CC2F8383230BD2DE9F04702462A
:102D0000CC48012508308046C36E016E046FC91A95
:102D1000436E1B1B8B4200DB1946836ED8F8740090
:102D2000181A884200DB0146C14F6037F86B8842B1
:102D300004DA002400F010FA204687E7108E012400
:102D4000BC4EC0054FF000010ED5D6F8803030687B
:102D5000834209DBB2F87420D20506D5D6F8B0213B
:102D6000824201DB052400E00C4674B3600719D5EC
:102D7000AF48C8388146FFF722FD000D40EA013018
:102D80000915C6E97601D7E904321B1A8A4102DA2D
:102D90000025FFF7A1FF9821484602F025FE0420F8
:102DA000FFF7E6FCE0070ED04046FFF708FDC6E956
:102DB0007C01D7E906340246181A8C4103DA002553
:102DC0001046FFF778FF284640E7FFE702203DE77F
:102DD0001EB5044690F83000C0F38110032804D1DA
:102DE0009449201D0831FFF781FE94F87400C0F368
:102DF0008110032805D18E4904F14800C839FFF736
:102E000075FED4F8B8008B4AC0F38113A03269462E
:102E1000032B0FD0C0F3411003281AD1002004EB7C
:102E20008003D3F8A0309B1341F82030401C0328C6
:102E3000F5DB09E0002004EB4003B3F98C3041F8E6
:102E40002030401C0328F6DB6846D4F8C010FFF79A
:102E500093FE1EBD2DE9F04705460020296BCA05EB
:102E60006AD501F05001402900D1012095F8741075
:102E700001F05001402900D1012095F8B8106D4CA7
:102E800001F05001402900D030B100F065F9002078
:102E9000C4F8E00184F8E801654ED4F80812E86A45
:102EA0006036814228D0C4F808020A28306B0CDA58
:102EB00040002060716B00EE100A491CC4F80C122F
:102EC000B8EEC00A09F043FD05E02060706BC4F85D
:102ED0000C0296ED0E0A84ED850AD4F80C02C0F1BE
:102EE0001000C4F810024FF48040C4F8180296F89D
:102EF000341019208840F0632846FFF769FF94F8E2
:102F0000E811DFF8309105274FF0020809F1A00918
:102F1000072911D2DFE801F0041127305E7E850019
:102F2000D4F8E001411CC4F8E0110A2804DB00F0E9
:102F300013F9012084F8E80186E0D4F8980001280C
:102F400010D12846FFF7D9FE10B1012803D004E0C4
:102F500084F8E87101E084F8E8814846FFF731FE23
:102F6000FFF776FE70E0032084F8E8012846FFF7BB
:102F70002BFD00F0F1F867E02846FFF7BEFEE8B34E
:102F8000012861D1B5F8B8004FF00403C00515D58C
:102F90004846FFF72CFE0146C017C4E97410D6E975
:102FA00002C2BCEB0101824102DA84F8E87108E058
:102FB0004846FFF718FE316A884202D384F8E831A8
:102FC00024E0F4E97601FFF766FED4E90601FFF795
:102FD00052FE39E0B5F8B800C0050BD54846FFF7FA
:102FE00006FE0146C017C4E97410D6E90232591A28
:102FF000824108DB2846FFF780FE00E003E010B1C5
:10300000012803D020E084F8E8711DE02846FFF78E
:10301000DBFCD6E7062084F8E80101200DF096FBE2
:103020000DE02846FFF769FE012805D038B10BE016
:10303000A8620020A860002084F8E88104E000F085
:103040008BF84846FFF7BDFD0020FFE510B50021D5
:103050004010002802D001F10101F9DC4FF001001D
:1030600001F1010100FA01F0434C00EE100AC4E93D
:103070000C01B8EEC00A09F06AFC84ED0E0A94F85F
:10308000341019208840E06310BD10B54FF418715A
:103090003A4802F0A9FC4021374802F0A5FC07207D
:1030A000FFF766FB344840F2DC510022C0E906120B
:1030B0001421C0E902124FF41671C0E9041230491C
:1030C0002E4C01620120C4F8E4011920FFF7BEFF75
:1030D0000020C4F8080210BD10B54FF4187127483D
:1030E00002F082FC0720FFF743FB24480121002265
:1030F000C0F8E41180F8E811032101200DF01CFB59
:1031000007226421AFF2B320BDE810400DF0BAB839
:1031100010B501200DF01AFBAFF2C720BDE810403A
:103120000DF070BB10B5FFF7B0FF002805D1AFF26E
:103130005700BDE810400DF02DB910BD10B5FFF7D8
:10314000E7FFAFF26B00BDE810400DF081BB0B490B
:10315000D1E97C0170477047084810B598210830C4
:1031600002F042FC9821074802F03EFCBDE8104006
:103170000520FFF7FDBA000008630020A8600020CA
:103180000008AF2FE0610020F0B516462DED028B50
:1031900085B01F460C4605463C22FE49A1F10C00B5
:1031A00002F0FBFBFB4950224C31A1F1100002F070
:1031B000F4FBF84996E80D000C3901F13C0C8CE861
:1031C0000D005CCC01F1980080E85C009FEDF28A74
:1031D000D1F82401401CC1F82401062802DD062094
:1031E000C1F82401C0F106060C46A0351AE004EB34
:1031F00006116A46384648310CF05DFE06EB460083
:1032000004EB80016A4628460CF040F9F0EEC00A53
:10321000B0EEC81AF4EEC10AF1EE10FA01D2B0EE27
:10322000408A761C062EE2DB05B0B0EE480ABDEC03
:10323000028BF0BD70B514462DED048B0E46B0EE3A
:10324000408A00259FEDD59A416BF0EE498A00290E
:1032500004DBD0F8BC00032800D10125CD4924228D
:10326000B431081F02F099FBCA480C38002380EDE6
:10327000388A00EB83015B1C91ED2F0A0A2B70EE5C
:10328000288AF6DBB2EE040AC822C8EE800AC0ED36
:10329000390A9FEDC31A322E1DDB9FEDC20AC0F81A
:1032A0001C21B6F57A7FC8EE001A00EE104AB8EE7F
:1032B000C00A61EE801A81EE810A2FDB9FEDBA0A07
:1032C000C8EE001A00EE104AB8EEC00A61EE801A8D
:1032D00081EE810A22E041F2883194FBF1F149420A
:1032E000D0F81C3101EB8101C918C0F81C1102D5BE
:1032F0000021C0F81C119FEDAD0AC8EE001A00EEC7
:10330000104AB8EEC00A61EE801A81EE810A29B92E
:10331000D0F82811012901D1B0EE490AD0F82011C6
:1033200009B1B0EE480AA2498C4201D1B0EE480A78
:10333000B5EEC00AF1EE10FA01D0C0ED3A0A90EDF8
:103340003A1A9C4B71EE600AF0EEE00A10EE901A09
:10335000994227DDD0ED2E0AF5EEC00AF1EE10FA03
:1033600020D1002D1ED0C0F81C21204602F0FBFC0D
:1033700041EC190B18EE100A02F046FD9FED8E1B72
:1033800053EC112B02F06AFC53EC192B02F0F4FB06
:103390009FED8B1B53EC112B02F060FC02F078FDCB
:1033A00000EE100ABDEC048B70BD2DE9F04F044611
:1033B0002DED048BA9B09FED799A4FF0000A754E60
:1033C000CDF810A00C3ECDF814A0CDF818A0D6F87A
:1033D0002011022003297DD000209FED7B8A20ADA3
:1033E00006EB800191ED2A0A05EB8001401CB8EE46
:1033F000C00A042820EE080A81ED000AF0DB0FA8BD
:103400000CF0BCF924A80CF01DFA624B24AA9C33E2
:103410000FA920462793FFF7B7FEF0EE408A04F18C
:1034200018000CF06DFA81096148D6F8302182420B
:1034300000DB0246B0EE680A2046FFF7FBFED6ED41
:103440003B0AB3460BA820EE200A86ED2E0A0CF0AC
:1034500095F913A90BA80CF0A8FE4E480FAAF0305E
:103460000BA906460CF027FD31460BA80CF000FD19
:1034700000210DF13C080DF14C090DF1100E002258
:103480001346104601EB410C0CEB000759F827607E
:1034900008EB8007401C7F680328C6FB0723F3DB8B
:1034A000900F40EA83004EF82100491C0329E6DB17
:1034B000DBF820015E4600286AD05046CDF818A0FF
:1034C000404200EE100AB8EEC00A20EE080A08F0EA
:1034D000A3FE00E0A2E08DED000A8DED019A8DEDD6
:1034E000029A0698404200EE100AB8EEC00A20EE9A
:1034F000080A09F027F98DED030A9DED060ADFEDB4
:10350000330AD6F83001B8EEC00A41F2883190FB98
:10351000F1F080EE201A00EE100AF8EEC01A81EEEB
:10352000210AB0EE001AC0EE011ABDEEE10A10EE5B
:10353000101A490000EE101A0691B8EEC00A60EEAB
:10354000200A00EE100AB8EEC00A20EE800ABDEE96
:10355000C00A8DED060AB8EEC00A20EE080A08F08F
:103560005BFE8DED070A8DED089A8DED099A9DEDB4
:10357000060AB8EEC00A20EE080A09F0E3F88DED5D
:103580000A0A1CAA694620A80CF0EDFC6A461FE056
:103590004BE0000054630020002474490000000048
:1035A00000409C4500004843000048420000C843DA
:1035B00040420F000E2DB23D000000000000794097
:1035C000000000000088B34000008030E10237476F
:1035D00007A91CA80CF0C7FC6F46DFED958AD4F84C
:1035E000BC00002813DD002007EB800191ED000AEC
:1035F00005EB800181ED000A20EE280A06EB800130
:10360000401C0428BDEEC00A81ED2A0AECDBD4F888
:10361000BC00F6EE009A03280CD108E0C6F82001A1
:1036200029B0BDEC048BBDE8F08F069848E700F0A8
:103630003DFEE0B396ED2A0AB8EEC00A20EE080A75
:103640008DED1C0A96ED2B0AB8EEC00A20EE080A92
:103650008DED1D0A96ED2C0AB8EEC00A20EE080A80
:103660008DED1E0A96ED2D0AB8EEC00A20EE080A6E
:103670008DED1F0AD6F820010028D1D096ED2E0A34
:1036800020EE290A08F0C8FD20EE280ABDEEC00A87
:1036900086ED2A0AC6F8ACA0C6F8B0A096ED2E0AB0
:1036A00020EE290A09F04EF820EE280A00E004E096
:1036B000BDEEC00A86ED2D0A2BE096ED2E0A20EE17
:1036C000290A08F0A9FD8DED070A8DED089A8DED08
:1036D000099A96ED2E0A20EE290A09F033F88DEDAD
:1036E0000A0A6A4607A920A80CF03DFC68460CF0BF
:1036F000E5FC002007EB800191ED000A06EB80015C
:10370000401C20EE280A0428BDEEC00A81ED2A0ADA
:10371000F0DBD4F8C01027980CF024FFD6F8200175
:103720000028AAD0401E79E770B590F8B810414A39
:10373000CC064FF000034FF0030101D4C2E9481357
:10374000B0F82041E40509D4048EE40503D5B0F8AF
:103750007440E40502D4C2E948131AE0D2F83411E7
:1037600039B1D0E93013C91A4FF47A73B1FBF3F1D0
:1037700005E0D0F8B01044F62064A14202DBC2F8A4
:1037800030110AE0D2F82C512944C2F82C11A14280
:1037900001DA002070BDC2E94B31FFF706FEF8E701
:1037A00010B54FF49C71234802F01EF9214C4FF0E4
:1037B00080400021C4F8FC0044F8A80F1D48A83040
:1037C0000CF0D0FE4FF47A70B7EE000A606784ED1B
:1037D000110A10BD174880ED3B0A002070471549BB
:1037E000C1F82801002070471249C1F834010020B7
:1037F000704704224FF41671AFF2D3000CF042BDB3
:10380000AFF2DB000CF0FEBF10B5FFF7C9FF0949AE
:103810000020C1F82801C1F83401AFF22900BDE849
:1038200010400CF0B7BDAFF235000DF011B800003C
:103830000000804E486300201FB5014610226846F4
:1038400002F0ABF8F7489DE80E0080E80E00F6495C
:103850009DF80C0081F8B001002004B010BD1FB528
:10386000F0490EC98DE80E00EF49102291F8B01111
:103870008DF80C10694602F090F80020EDE72DE974
:10388000F04F91B000251821684602F0ADF80024F1
:10389000182106A802F0A8F8E348A046C14690F80F
:1038A000C01101297ED1D0F8B8B1D0F8B4A100225E
:1038B000C2EBC20000EB4001DB4800EB810E9EF83A
:1038C00050000F90002864D000215FE0DDE9000780
:1038D0006D1C5EF821300E93181847EBE376CDE9A6
:1038E00000060EEB8100EDB243690D93DDE9027C29
:1038F0004FEAE376DB1946EB0C06CDE90236836A24
:10390000DDE9047CDE170C93DB1946EB0C06CDE9F0
:103910000436C06B0E9BDDE9067C83FB0063360C2E
:1039200046EA0346F6194CEB2343CDE906630D9BAB
:10393000DDE9087C83FB00634FEA164646EA03464E
:10394000F6194CEB2343CDE908630C9BDDE90A7CB7
:1039500083FB00634FEA164646EA0346F6194CEB32
:103960002343CDE90A6380FB00634FEA164646EA2B
:10397000034616EB080849EB23490444584501DA8D
:10398000834602E0504500DD8246491C0F9888427C
:103990009CDC521C052A8BDBA348AAEB0B01D0F858
:1039A000BC0100E056E0814254DBA5FB0823E01790
:1039B0000026109006FB083005FB0900CDE90C201D
:1039C00084FB0420110C41EA00410014CDE90E01F2
:1039D00006A800EBC601D1E90003A0FB05B203FB7A
:1039E0000522002100FB012C684600EBC601D1E94D
:1039F0000001A0FB043701FB0471109A00FB0210C8
:103A0000190C41EA00490CAA4FEA204A92E88900C1
:103A10000F9983EA070880EA010252EA080212D0ED
:103A2000421A63EB0703BBEB09006CEB0A0C4FEA8D
:103A30000C4141EA1041000401F05DFF7A4901EBBD
:103A40008601C1F8A401761C032EC1DB7648012152
:103A500080F8B01111B00020BDE8F08FF8B5724DBC
:103A60000E460446D5E96D01091A052291FBF2F1D3
:103A7000301A90FBF1F0C0B28DF80000042801D993
:103A80002020F8BDC0EBC00000EB400005EB80013A
:103A900091F85000052816D0421C81F850209DF85E
:103AA0000010C1EBC10101EB410105EB810202EB0A
:103AB0008001CE63236842F8203060684861A068C6
:103AC00088620020F8BD01F14003181F102219463A
:103AD00001F063FF9DF800001022C0EBC00000EB76
:103AE000400005EB8000011D01F057FF9DF800002C
:103AF0001022C0EBC00000EB400005EB800000F19D
:103B00001801143001F049FF9DF800001022C0EBAD
:103B1000C00000EB400005EB800000F12C012830D4
:103B200001F03BFF0420BAE730B585B0044603A995
:103B300068460BF0BFFE04A80BF070FF02282BD0E4
:103B4000D4F8E4000399401A374991F8B02112B330
:103B500008B3D1F8A421009C80FB0232150445EA89
:103B6000134222440092D1F8A821019C80FB02322A
:103B7000150445EA134222440192D1F8AC11029A8D
:103B800080FB0110030443EA11401044029003211A
:103B900068460CF089FD0CE0606B032809D10BF03E
:103BA0009BFE30B168460399FFF758FF08B9FFF74D
:103BB00066FE05B0002030BD10B54FF4E2711A4822
:103BC00001F012FF18481949C0F8B4114FF4AA01C6
:103BD000C0F8B8114FF4A021C0F8BC11012180F841
:103BE000C011002010BD1049C1F8B8010020704775
:103BF0000D49C1F8B401002070470B49C1F8BC0160
:103C00000020704758B10849D1F8A4210260D1F8CA
:103C1000A8214260D1F8AC118160002070470520D6
:103C20007047000024660020806400200000D8FF58
:103C30002420F5E720B12D4981F8C0010020EFE7ED
:103C40002420EDE7294B93F8B1010028E8D0D3E90F
:103C50006D10401A052190FBF1F00020C0EBC0016F
:103C600001EB410103EB810191F8502022B10021C9
:103C700000E0491C8A42FCDC401C0528EEDB0020E9
:103C8000CEE7082296211A480CF0FCBA18480CF02E
:103C9000B9BD10B5FFF790FF4FF49A731022154984
:103CA00015480CF041FB20B9AFF229000CF072FB73
:103CB00008B1012010BD0D49012081F8B10100209B
:103CC00010BD10B5094C94F8B101002808D008487F
:103CD0000CF098FDAFF255000CF0BAFD08B10120D0
:103CE00010BD002084F8B10110BD000080640020E8
:103CF000293B00085F38000839380008002803DD38
:103D0000FE490122C1E920020020704710B5B82108
:103D1000FA4801F069FE9FEDFA0AF84880ED030ABF
:103D20009FEDF80A80ED020A9FEDF70A4FF08041FF
:103D300080ED000AB3EE0E0A80ED010A41664FF4F1
:103D4000FA619FEDF20AC16780ED270A002010BDDD
:103D500070B5EA4C002594ED001AB4EEC01AF1EEED
:103D600010FA17D394ED011AB4EEC01AF1EE10FA5E
:103D700010DC2069012817D194ED030AB4EEE00AA3
:103D8000F1EE10FA06D394ED020AB4EEE00AF1EE79
:103D900010FA09DD606F20B9D848A16D18300CF019
:103DA000E1FB0120C4E91D05D4E91E01884204DBC2
:103DB000606F012800D1E565656770BD10B50446E8
:103DC0002DED028BB0EE408A0BF0E2FCCB490022D5
:103DD00020B918EE100ACE4B984202DD0A614A6102
:103DE00002E00869002808D1486920444861B0F51C
:103DF000FA7F02DD0120C1E90402BDEC028B10BD97
:103E0000F0B58DB00D461446064669460CF0CDF966
:103E100009AA314628460CF04EF8294630460CF0E7
:103E200027F80021EC460DF1240E00231A4618460F
:103E300001EB41073D180EEB80065CF825507668D3
:103E4000401CC5FB06320328F4DB980F40EA8200D1
:103E500044F82100491C0329E7DB0DB0F0BDA74958
:103E60000020C1F88C00704710B590ED000AD0ED2D
:103E7000010AB8EEC00AB8EEE01AF8EEE00A20EE49
:103E8000000A01EE200AD0ED020AB8EEE01AF8EEC0
:103E9000E00A01EE200A08F05AFDDFED9E0A20EE4E
:103EA000200A10BD00229549012330B1012810D00D
:103EB000C1F8983041F88C2F31E081ED280A81ED6E
:103EC000290A9FED950A81ED2A0AE1E924328A60E8
:103ED0007047D1ED280A91ED271A70EE600AF0EED6
:103EE000E00AF4EEC10AF1EE10FA16D2D1F894000D
:103EF000401CC1F89400D1ED290A312830EE800A27
:103F000081ED290AE4DD0220DFED840AC1F890008A
:103F100080EE201A81ED2A1A704741F8902F4A60EE
:103F200070472DE9F04798462DED088B8AB017466B
:103F30008A4604469FED788A0025704E03950495C5
:103F40000595D6F8880000287DD00BF0D1FC10B183
:103F500003A80BF0A1FCD6F880004FF0010900285F
:103F600017DDC6F884900BF0C3FC48B103A80BF032
:103F7000C7FC8009B0F5C87F02D2D6F8800004E003
:103F8000D6F88000001BC6F88000002801DCC6F8C7
:103F900084500BF08FFE002855D000209FED5D9AD5
:103FA00057F8201000EE101A58F82010401CB8EEF8
:103FB000C00A032860EE090A00EE101AB8EEC00A23
:103FC00020EE800A00EE098AEADB3846FFF74CFF54
:103FD000F0EE408A4FF07E5788EE280AF7EE00AAEE
:103FE00010EE100AB84201DDB0EE6A0A10EE100AB7
:103FF000DFF82C81BFEE00BA404501D9B0EE4B0A84
:1040000007F05AFED6F88C00B0EE40AA98B196EDB3
:10401000000AB4EEE80AF1EE10FA0CDD96ED010AA2
:10402000B4EEE80AF1EE10FA05D2B0EE4A0AD6F87C
:104030009000FFF737FF68460BF0DAFC2F490C229F
:10404000AC31684600E0E2E001F0D9FC18B9D6F8DE
:10405000980001286BD129489DE80E00AC3080E81B
:104060000E00009818B9019808B90298F0B3684694
:10407000FFF7FAFEB0EE408AB5EEC08AF1EE10FA14
:1040800055D0F2EE049A38EE690A20EE000A08F0E4
:104090005EFC86ED010A38EE290A20EE000A08F0DF
:1040A00056FC86ED000A9DED020AB8EEC00A60EEED
:1040B000090AB0EE480A80EE808A18EE100AB8426B
:1040C00001DDB0EE6A8A18EE100A404501D9B0EE63
:1040D0004B8AB0EE480A07F0EFFDD6ED270A30EE26
:1040E000600A86ED020AB0EE480A00E024E007F01C
:1040F000E3FDD6ED270A30EE200A14E044660020E6
:104100000000B4420000B4C2000070427B142E3E96
:1041100000401C46000080370000000000004842BC
:10412000000080BF03E086ED030AC6F88C50DFF87C
:104130008481F16D21B32FE01FED0D0A86ED000A99
:10414000B3EE0E0A86ED010AD6F89800012808D0D1
:104150001FED140A86ED020A1FED170A86ED030A09
:10416000E5E796ED2A0A96ED271A70EE410A30EE41
:10417000010AC6ED020A86ED030AC6F89850D6E792
:104180000027C6F85C9006EB0710414618300BF08C
:1041900031FB7F1C042FF6DB464906AA0C310F4683
:1041A0005046FFF72DFE394650460BF061FE03A83E
:1041B0000BF0A6FB00EE100ADFED3F0A2046B8EE3A
:1041C000400A20EE200AFFF7F9FDF0EE4A0AB0EEB1
:1041D000680AFFF7BDFDD6E91E01884201DA2044D6
:1041E000B067706F90B9306E20443066B0F57A7F5A
:1041F0000CDD304930223039A1F11000356601F074
:10420000CCFB2C48414610380BF0F4FA706F0AB022
:10421000BDEC088BBDE8F08770B588B0044604A8F3
:104220000BF010FBD4E93001451A68460BF0A6FAF2
:10423000064604AB04F1A00269462846FFF771FE6A
:104240000CF0A0F908B0304670BD04224FF496710E
:10425000AFF23B000CF016B8AFF243000CF0D2BA4C
:1042600010B5FFF753FD00280DD112480021583832
:10427000C0F88C100121C0F88810AFF23100BDE801
:1042800010400CF087B810BD10B5AFF273000CF001
:10429000B9FAAFF27B00BDE810400CF0B3BA0549A3
:1042A00001205839C1F88C00002070470148583867
:1042B000406F70479C6600200000803CF0B51D46B2
:1042C0002DED028B99B090ED000AD0ED010A174652
:1042D000B8EEC00AB8EEE01AF8EEE00A0E4620EE9C
:1042E000000A044601EE200AD0ED020AB8EEE01AF8
:1042F000F8EEE00A01EE200A08F029FBF0EEC00A11
:1043000010EE900AB0F18D4F7EDDD6ED000AB8EECA
:10431000E01ADFEDFE0A21EE201A8DED041A96ED6B
:10432000011AB8EEC11A21EE201A8DED051A96ED8C
:10433000021AB8EEC11A21EE201A8DED061A96ED7A
:10434000031AB8EEC11A61EE200ACDED070A9FEDFF
:10435000F08A10AA8DED0C8AD4ED000A0CA904A8ED
:10436000F8EEE00A80EE801A8DED0D1AD4ED010A08
:10437000F8EEE00A80EE801A8DED0E1AD4ED020AF6
:10438000F8EEE00A80EE801A8DED0F1A0BF0EBFDCF
:1043900014A904A80BF078FD6A4614A910A80BF024
:1043A000E2FD9DED021ADDED010ADA4921EE010A76
:1043B00000EEA00A10EE100A884202DA9FEDD60A3B
:1043C00011E010EE100AD549884202DA9FEDD40AB6
:1043D00009E010EE100AD349884202DAB5EE000A6D
:1043E00001E09FEDD10A01EE907AB8EEE12ADFED0F
:1043F000CF2A8DED088AC2EE221A21EE800A21EE24
:10440000001A8DED091A00E038E020EEC00A6A4675
:1044100004A98DED0A0A8DED0B8A08A80BF0A3FD07
:104420006A4604A910460BF002FD68460BF004FE34
:10443000DDED000A9FEDBE0A60EE800AFDEEE00AA7
:10444000C5ED000ADDED010A60EE800AFDEEE00A2E
:10445000C5ED010ADDED020A60EE800AFDEEE00A1C
:10446000C5ED020ADDED030A20EE800ABDEEC00AAA
:1044700085ED030A19B0BDEC028BF0BD96E80F0084
:1044800085E80F00F6E72DE9F0410C462DED068B8F
:10449000054690ED000AD0ED010AB8EEC00AB8EE6C
:1044A000E01AF8EEE00A20EE000A01EE200AD0ED54
:1044B000020AB8EEE01AF8EEE00A01EE200A08F06F
:1044C00046FA10EE100A4FF07E5800264FF0804753
:1044D00040453FDDD5ED020AB7EE009AF8EEE00A5E
:1044E000C0EE808A39EE680A9FED89AAB5EEC00A4F
:1044F000F1EE10FA01DCB0EE4A0AF6EE009A20EE78
:10450000290A08F024FAB0EE408A38EE890AB5EE9E
:10451000C00AF1EE10FA01DCB0EE4A0A20EE290AD8
:1045200008F015FAF0EE408A95ED000AB8EEC00AE0
:1045300060EE000A95ED010AB8EEC01AB8EEC00AA6
:1045400041EE000AB0EE600A08F001FA10EE100A1F
:10455000404503DCC4E90076A66025E0DFED740A7F
:1045600028EEA01ABDEEC11A84ED001A95ED011ACD
:10457000F8EEC11A81EE801A21EE081A61EE200AC7
:10458000FDEEE00AC4ED010AD5ED000AF8EEE00AFE
:1045900080EE801A21EE080ADFED660A20EE200A7E
:1045A000BDEEC00A84ED020AE660BDEC068BBDE8F4
:1045B000F08170B590ED000AD0ED010A0546B8EE25
:1045C000C00AB8EEE01AF8EEE00A0C4620EE000A47
:1045D00001EE200AD0ED020AB8EEE01AF8EEE00A89
:1045E00001EE200AD0ED030AB8EEE01AF8EEE00A78
:1045F00001EE200AB5EEC00AF1EE10FA07D84FF02E
:104600008040206000206060A060C86070BD08F03D
:104610009EF9B7EE001AC1EE000A9FED450A20EEA2
:10462000800AD5ED000AF8EEE00A60EE800AFDEEA1
:10463000E00AC4ED000AD5ED010AF8EEE00A60EEEA
:10464000800AFDEEE00AC4ED010AD5ED020AF8EE9B
:10465000E00A60EE800AFDEEE00AC4ED020AD5ED44
:10466000030AF8EEE00A20EE800ABDEEC00A84EDEF
:10467000030A70BD70B5044690F8300088B040065B
:104680007ED5A069002801DB014600E041424FF4DD
:1046900080320026284D91420BDAE169002900DAC8
:1046A0004942914205DA216A002900DA49429142E1
:1046B00067DB002800DA40424FF4C80188420BDC77
:1046C000E069002800DA4042884205DC206A0028C0
:1046D00000DA4042884201DD032000E00220A863A6
:1046E000696BA06A814242D0686394ED0A0A9FED2B
:1046F000131AF8EEC00A80EE810ADFED110A20EEEF
:10470000200A10EE100A01F07FFB1BE00000803051
:104710000000000017B75139A69BC43B0AD7233CC1
:104720008FC2753DCDCC4C3ECDCCCC3E0014CD4798
:104730000000804E000080CEFC66002000247449FA
:104740000000004E9FEDFA1B53EC112B01F014FA00
:104750009FEDF91B53EC112B01F00EFA9FEDF81BA6
:1047600053EC112B01F07AFA01F02FFB2863049629
:10477000296BA0690BF043FB0590296BE06901E010
:1047800022E023E00BF03BFB0690296B206A0BF044
:1047900036FB07906A4604A9EB480BF08CFB0098A7
:1047A000E94A8001009001986946800101900298D1
:1047B0008001029003988001039010460BF025FBC6
:1047C000E1490846FFF7F5FE08B070BDAE63FBE7B0
:1047D00070B504462DED048B8EB0D0F82001410653
:1047E00076D5D94DD4F81011D84B2A68891AD4F847
:1047F0002C215A438A4201DA032100E00221A963F5
:10480000800504F5887602D5CF493046B5E0002111
:1048100007A80BF04FF8CC490C223C3107A801F057
:10482000EEF820B9D4F82801A96D88427ED02088FE
:104830006B4680B207AA616A0AF07EFE9DED000A0F
:10484000DDED010AB8EEC00AB8EEE01AF8EEE00AB3
:1048500020EE000A01EE200ADDED020AB8EEE01AB1
:10486000F8EEE00A01EE200A08F071F8B0EE408A96
:104870009FEDB70A68EE000A9FEDB61A80EE810A36
:10488000DFEDB50A20EE200AD4ED4A0AF8EEE00A80
:1048900060EE800A1FED571A80EE810AF6EE000ADC
:1048A00020EE209AB0EE490A07F0B6FCF0EE408AFE
:1048B000B0EE490A07F046FF18EE100A4FF08041AB
:1048C000884206DA0020C5E912102865686532E0E2
:1048D00055E05FED690A68EEA00AFDEEE00AC5ED5D
:1048E000120A5FED6C0A20EE200ADDED000AF8EEF8
:1048F000E00A60EE200A80EE881AFDEEC10AC5EDDE
:10490000130ADDED010AF8EEE00A60EE200A80EEFF
:10491000881AFDEEC10AC5ED140ADDED020AF8EEB3
:10492000E00A20EE200AC0EE080A00E00DE0BDEE2D
:10493000E00A85ED150A07AB93E8070005F13C0393
:1049400083E80700D4F82801A8657F4903AA483105
:1049500030460BF0B0FA7C480AAA5C3003A9044642
:104960000BF0A9FA214630460BF082FA03AA0AA9F5
:1049700075480BF0A0FA744903A8FFF71AFE0EB0B1
:10498000BDEC048B70BD1FB5044669466E480BF044
:104990006FFA6D4A6946203220460BF08CFA6A495C
:1049A0001DCC103181E81D001FBD2DE9F0470446E4
:1049B000654E90F8740006F15C0A06F120080125A6
:1049C00000F05001103692B004F5887904F15C07CC
:1049D000402906D094F8200100F0500040280DD066
:1049E0001DE031463846FFF74EFDB4F82001C00502
:1049F0000CD5514648460BF03BFA07E05146484675
:104A00000BF036FAB4F87400C00508D569464E4874
:104A10000BF02EFA4246694630460BF04CFAB4F8D9
:104A20002001C005204602D5FFF7D2FE01E0FFF7C6
:104A300021FE3246444940460BF03DFA94F874009A
:104A400040066FD5208EB4F820110843C0056DD5FF
:104A50000FAA394630460BF089FBD4E9172080FBBA
:104A60000001C2FB0201626E374FC2FB02014FF030
:104A70008042801A71F1020014DB04A80AF078FF6A
:104A8000DDE9042080FB0001C2FB0201069AC2FBA3
:104A900002014FF08042801A71F1020002DB042013
:104AA000B8630BE0B86B042808D041F288320228C2
:104AB00006D0032804D0012852D009E0002507E0E1
:104AC000E16E91FBF2F5012D00DA0125032800D0FB
:104AD000AD002248002445431098079480022946DF
:104AE0000BF08DF908900F982946404280020BF098
:104AF00086F9CDE909040BAA314607A80BF0DBF9CA
:104B000032460BA910460BF080F931460846FFF7F4
:104B100050FD69460C480BF0ABF9424669463046F9
:104B20000BF0C9F912B00020BDE8F08720E00000CA
:104B3000112D4454FB21094000000000000070408A
:104B40000000000000806640FC66002071981C0098
:104B5000DB0F49400000344300008037A69BC400AF
:104B6000E06E90FBF2F0012800DA01204500AFE78B
:104B7000334619463846E26EFFF7A0FBC9E770B529
:104B80000446008EC105D4F8200107D4B4F874108F
:104B9000C90503D4C10501D4002070BDC0F30120B4
:104BA000032807D02046FFF700FF2348A16B0BF036
:104BB00019FEF1E704F588711F482EC980E82E0020
:104BC000F3E71E480BF01EBE1B4810B56C211038D1
:104BD00000F00AFF18484FF0804110380161016071
:104BE0000162C163C165002010BD184810B50822DC
:104BF00013A1006800F003FF08B1322010BD13229A
:104C0000BDE81040C8210D480BF03CBB10B5FFF7C4
:104C1000DBFF002805D1AFF22D00BDE810400BF0FE
:104C2000B9BB10BD10B505480BF0ECFDAFF2450067
:104C3000BDE810400BF00CBE0C6700207F4B000855
:104C4000654D504C20352E3100000000D803002067
:104C500000209FEDFE0AFE4ADFEDFE0A02EB800116
:104C6000401C81ED080AC0B2C1ED0B0A0328F5D340
:104C70007047F74A002002EB8001D1ED080A91ED60
:104C80002D0AF4EEC00AF1EE10FA01D281ED080A05
:104C9000D1ED0B0AF4EEC00AF1EE10FA01DD81ED60
:104CA0000B0A401CC0B20328E5D370473EB50B4643
:104CB000B0F8481009040091B0F84A10009A0904AD
:104CC0000191B0F84C1009040291E1494C6E121B9D
:104CD0000092019A8C6E121B0192029AC96E511AAF
:104CE0000291816EB0F844006A4680B20AF024FC5A
:104CF0003EBDF0B5D64F00242546D7F894208DB0A0
:104D00002E46012A01D1C7F8946009A9FFF7CEFF0A
:104D100005A80AF097FD059909986022A0EBA1303B
:104D2000099006990A98A0EBA1300A9007990B9870
:104D3000A0EBA130C8490B90081F00F02EFE0DF12A
:104D4000240CC5489CE80E00143080E80E0068462C
:104D50000AF00EFEC04960226C31081F00F01DFEF3
:104D6000BD489DE80E00803080E80E000021092239
:104D7000D7F82C04401CC7F82C0401EB410007EBCA
:104D80008000DDF800C0D0F84C33491C93FBF2F3EF
:104D90001C44D0F85033092993FBF2F31D44D0F89A
:104DA000543393FBF2F31E44D0F8B83393FBF2F381
:104DB00063440093D0F8BC33DDF804C093FBF2F3F6
:104DC00063440193D0F8C003029B90FBF2F01844B7
:104DD0000290CDDB002C00DA6442002D00DA6D4237
:104DE000002E00DA76420098002800DA4042009057
:104DF0000198002800DA404201900298002800DA69
:104E000040420290009900208C4200DA0120019972
:104E10008D4200DA401C02998E4200DA401CD7F81D
:104E20002C14092900DB401C04280DD197F8240418
:104E300002280BD901468648D7F8282464300BF0A5
:104E40001BFB01200BF012FB0DB0F0BD0BF000FBC3
:104E5000FAE72DE9F0417E4D00272DED048B064643
:104E60003C4685F824749FED7D9B9FED7E8BC5F8B5
:104E7000287405EB8400D5ED0F0A90ED330AB4EEEB
:104E8000E00AF1EE10FA1EDB95ED140B53EC182B33
:104E900051EC100B00F06AFE41EC100B07F064FAC5
:104EA00053EC192B51EC100B00F0C2FF0BD295F80C
:104EB00024040121401C85F82404D5F82804A140CD
:104EC0000843C5F82804641CE4B2032CD1D395F838
:104ED0002404B8B3002406EBC40090ED000B51ECA1
:104EE000100B00F072FF05EB8401641CE4B248660D
:104EF000032CF0D3C5F82C74A868042802DA95F8BE
:104F00002404A86095F8240403281BD15749E868B5
:104F1000884217DC95ED140B53EC182B51EC100B59
:104F200000F024FE41EC100B07F01EFA53EC192B95
:104F300051EC100B00F07CFF04D2A868032801D1CB
:104F40000420A8604A49286988421DDA4949E8686E
:104F5000884219DC95ED140B53EC182B51EC100B17
:104F600000F004FE41EC100B07F0FEF99FED421B30
:104F700051EC100B53EC112B00F05AFF04D2A8682F
:104F8000042801D10520A860BDEC048BBDE8F081A8
:104F90002DE9F0412E4C0746D4F8A404012802D094
:104FA00000252846F2E73649F7EE000AA1F1E800AD
:104FB000B7EE000A0646FBF7B2FA254A30465032F1
:104FC00002F5AC71FBF74DFD0500EAD06068401CAE
:104FD000606094ED140B51EC100B00F0F6FEB96E0E
:104FE0000AF00DFF00EE100ADFED260AB8EEC00A47
:104FF00020EE200A10EE100A00F006FFC4E91401AA
:1050000094ED6A0B51EC100B00F0DFFEA06594EDFF
:105010006C0B51EC100B00F0D8FEE06594ED6E0BBC
:1050200051EC100B00F0D1FE206694ED680B9FED63
:10503000161B51EC100B53EC112B00F011FFB0D2EA
:1050400031469FED130AF0EE400A23E000401CC6F3
:105050006867002000401C46B86A00209A99999918
:105060009999B93F000000000000F03FAE47E13DD4
:1050700000007A43BC74933C9CC420B07268913F9A
:105080003069002000008037000000000070A74059
:10509000CDCCCC3E0846FBF742FA82E7D0ED030ABE
:1050A00090ED040A00210122F4EEC00A0223F1EE81
:1050B00010FA12DD90ED051AF4EEC10AF1EE10FAC5
:1050C0000BDDB4EEC10A0164F1EE10FA02DBC0E9B7
:1050D00011237047C0E911327047B4EEE00AF1EED7
:1050E00010FA12DD90ED051AB4EEC10AF1EE10FAD5
:1050F0000BDDF4EEC10A0264F1EE10FA02DBC0E946
:1051000011137047C0E911317047F4EEC00A03640F
:10511000F1EE10FA02DBC0E911127047C0E911216B
:105120007047002319469FEDFE0AC36400EB81021D
:10513000491C82ED000A82ED090A0329F6DB0121F0
:10514000C0E91D13704730B504461420A0650A203D
:105150002066002584F870502046FFF7E2FF656561
:1051600030BD70B52DED048B86B06946FFF79EFD0E
:105170009FEDEC8B1FED3D9A00246E4603AD56F873
:10518000240000EE100A05EB8400B8EEC00A20EE01
:10519000090A80ED000A20EE000A10EE100A00F065
:1051A00033FE53EC182B00F040FC41EC180B641C50
:1051B000032CE4DBB0EE480AF0EE680A07F08AFB45
:1051C000DA4EB0EE408AF0EE608A002455F82400F2
:1051D00000F01AFE53EC182B00F040FD00F058FED2
:1051E00000EE100A06EB840000F58060641CD0ED30
:1051F0000C0A032C30EE200A80ED0C0AE6DBD6F810
:105200008404401CC6F884040120C6F8AC0406B02F
:10521000BDEC048B70BD70B505462DED028B86B0DC
:1052200004AA03A968460AF015FD9FEDBE8B002471
:105230006E4606EB840090ED000A20EE000A10EEA8
:10524000100A00F0E1FD53EC182B00F0EEFB41ECEE
:10525000180B641C032CECDBB0EE480AF0EE680A75
:1052600007F038FBB0EE408AF0EE608A002456F872
:10527000240000F0C9FD53EC182B00F0EFFC00F007
:1052800007FE00EE100A05EB8400641CD0ED000A56
:10529000032C30EE200A80ED000AE8DB686D401C2C
:1052A00068650120E86706B0BDEC028B70BDF0B503
:1052B00004460021F7EE001A9FED992A94ED140A96
:1052C00004EB8100B8EEC01AD0ED000A80EE810A2E
:1052D000B5EEC00AF1EE10FA02DBB0EE401A01E0C2
:1052E000B1EE401AD0ED060AF5EEC00AF1EE10FA62
:1052F00001DAF1EE600A71EE600AC0ED0C0A80ED91
:10530000060A94ED0F1AD0ED092A71EE610A00EE3B
:10531000A20AC0EE010AC0ED090AF5EEC00AF1EEDC
:1053200010FA01DAF1EE600AC0ED030A491C80EDC3
:10533000002A0329C2DB2046FFF7B0FEE06CB0F57F
:105340007A7F01DA401CE06494F870700021052631
:10535000042303250122206C062F09D2DFE807F081
:105360000309102B52376267A267E16484F870204A
:10537000F0BDE06F0128FBD1022084F870000DE041
:1053800004EB8000D4ED190A90ED030AB4EEE00AB4
:10539000F1EE10FA04DB84F8703031E0A167F0BD63
:1053A000D4ED1A0AB4EEE00AF1EE10FA22D934E094
:1053B0006267A267F0BD04EB8000D4ED190A90ED9E
:1053C000030AB4EEE00AF1EE10FAE4DAF0BD04EB01
:1053D0008000D4ED1A0A90ED030AB4EEE00AF1EE73
:1053E00010FA07D9006B524EB04206D9216EE06C1C
:1053F0008842EBDB84F87050DAE784F87030E164BF
:105400006167CBE704EB8000D4ED1B0A90ED030A43
:10541000B4EEE00AF1EE10FAD8D884F87060E164D6
:10542000C6E710B5044600EE104AB8EEC00ADFED3C
:10543000410A20EE200A9FED401AC0EE010AB6EEA6
:10544000000A20EE800A10EE100A00F0DDFC41ECAC
:10545000100B06F07DFE9FED391B51EC100B53EC49
:10546000112B00F089FB00F0B0FC01462F48C0E989
:10547000204110BD2DE9F04F00242DED028B91B09D
:105480000546049405940694C06E44F62061274EA8
:10549000884206DBD6F88010884210D0FFF7C1FFA3
:1054A0000DE0D6F848231044C6F8480388427DDB57
:1054B000E96E814201D0FFF7B4FFC6F84843286B7C
:1054C000C6F8B0042846FFF74CFE06F5906003C806
:1054D000814204DB1B48FFF7EAFEC6F88444D6F895
:1054E000A804012802D12846FFF703FCD6F8A4043B
:1054F00001285BD104A80AF059FA9DED040ADDEDFC
:10550000050A20EE000A00EEA00ADDED060A00EE14
:10551000A00A07F01CFA86ED030ADFED0B0A15E07E
:10552000000000000000000000000000686700208C
:10553000CDCC4CBD368D27400024744900000000BE
:105540000000D041986B00200000804620EE200A29
:10555000C149A146ADF82040BDEEC00A099110EE48
:10556000100AADF81C00ADF81E4007A8FDF7BEFA02
:1055700068460AF05BFA316F00980AF040FC044676
:10558000716F01980AF03BFC0444B16F02980AF075
:1055900036FC0444F16F03980AF031FC04EB000878
:1055A0009DE80F0000240DF1340A00E0A2E006F1AE
:1055B00070079FEDAA8A87E80F000DF1280B05EB15
:1055C0004407A96E37F8480F00040AF018FC00EEF3
:1055D000100A4AF8240006EB8400B8EEC00A20EE58
:1055E000080A80ED050A388801044BF82410641C71
:1055F000E4B2032CE3D398480AA9E8380446FBF741
:105600005EF83168D6F82803884273DB95ED390AD5
:10561000D6ED360AB8EEC00AF5EEC00A20EE080A4A
:10562000F1EE10FA05D070EE600AF0EEE00AC6ED79
:10563000370A86ED360AB068062818D2DFE800F08F
:10564000030303030D249FED860AC82086ED0E0A8E
:10565000B7EE000A86ED0F0A08E09FED820A86ED9C
:105660000E0A9FED810A642086ED0F0A3064288EB1
:10567000C005099812D4FDF748F900F05EFB00EE72
:10568000100A5FED530A11E09FED780A86ED0E0ACD
:105690009FED770A322086ED0F0AE7E7FDF78FF8D6
:1056A00000F04BFB00EE100ADFED720A982180EE4D
:1056B000201A86ED041A099800F096F9D6F884109D
:1056C000414543DA96ED040AB5EEC00AF1EE10FA50
:1056D0003CDDD6ED0E0AB4EEE00AF1EE10FA35D25A
:1056E000316C7068884206DA2846FFF751FC0028C2
:1056F00059D00CE056E06049D6F8B000884206DB8D
:105700002846FFF745FC00284DD0C6F8049000203D
:1057100006EB8001401C91ED050AC0B281ED2D0A17
:105720000328F5D3FFF7A5FA002006EB8001401C03
:1057300091ED080AD1ED0B0AC0B2032830EE600AE1
:1057400081ED330AF1D34D48FFF783FB002006EBD0
:105750008001401C91ED260AD1ED050AC0B2032854
:1057600030EE600AB0EEC00A81ED290AEFD396ED63
:10577000290AD6ED2A0A002030EE200AD6ED2B0A9F
:1057800030EE200A86ED2C0A06EB8001401C91EDDC
:10579000050AC0B281ED260A0328F5D3E821204688
:1057A00000F022F9002011B0BDEC028BBDE8F08FB3
:1057B00010B54FF49761324800F016F9304C0A20CA
:1057C000206040072067FFF743FA04F58660FFF783
:1057D000BAFC2068C4F880049FED2A0A04F58060B2
:1057E0001E2180ED1B0A9FED280AC4F88C1480ED61
:1057F000260A9FED260A80ED250A9FED250A80EDF9
:10580000270A1920FDF722FC002010BD012240F2DA
:105810005231AFF29F300AF035BDAFF2A7300AF037
:10582000F1BF10B5FFF7C4FF002805D1AFF2230088
:10583000BDE810400AF0AEBD10BD10B5AFF2CB30E0
:105840000AF0E0FFAFF23B00BDE810400BF000B8FB
:105850000B48806870470000186A002000008037FD
:105860000080BB44000096439A99993F0000704223
:105870003333B33F0050C347CDCC4C3D10690020BB
:105880006867002000000042CDCCCC3ECDCC4C3F20
:105890003333333F2DE9F05F0546002092469B46A7
:1058A00088460646814640241BE028464146474636
:1058B000224600F01FFB53465A46C01A914110D3AE
:1058C00011461846224600F047F82D1A67EB0108EA
:1058D0004F4622460120002100F03EF817EB000958
:1058E0004E41201EA4F10104DFDC484631462A4621
:1058F0004346BDE8F09F2DE9F0410024061B2546F4
:1059000071F1000605DA01240027D0EB070067EBF0
:105910000101161E73F1000605DA0027D2EB07021B
:10592000012567EB0303FFF7B5FF86460E461746D2
:105930009C46AC4204D00025D0EB050E65EB010679
:1059400024B10020D2EB000760EB030C7046314617
:105950003A466346BDE8F081202A04DB203A00FA8B
:1059600002F1002070479140C2F1200320FA03F3B6
:10597000194390407047202A06DBCB17203A41FAA2
:1059800002F043EAE07306E041FA02F3D040C2F1CC
:105990002002914008431946704710B5431A9342BC
:1059A00009D28318881803E010F8011D03F8011DBF
:1059B000521EF9D210BD40EA01039B0703D009E053
:1059C00008C9121F08C0042AFAD203E011F8013BEB
:1059D00000F8013B521EF9D210BDD2B201E000F82E
:1059E000012B491EFBD270470022F6E710B5134683
:1059F0000A4604461946FFF7F0FF204610BD30B5B1
:105A000004460020034600E05B1C934203D2E05CA6
:105A1000CD5C401BF8D030BD034611F8012B00F8D7
:105A2000012B002AF9D1184670472DE9FE4F804618
:105A300081EA0300C00F0C46009021F0004123F0E2
:105A40000045B8EB0200A94105D2404621469046E8
:105A50001C460B46024623F00040104347D0270D5A
:105A6000C7F30A00C3F30A510290401A019040287C
:105A70006BDAC3F3130040F4801B0098924620B108
:105A80000023D2EB030A63EB0B0B01985946C0F1DC
:105A900040025046FFF760FF06460D465046594605
:105AA000019AFFF768FF10EB08006141002487EAC4
:105AB000115284EAE7731A4340D0009A62B3019A04
:105AC000012A4FEA075215DC001B61EB02014FF07F
:105AD000004202EA0752CDE90042001C41F5801164
